:100000000C94E8080C9431090C9431090C943109D2
:100010000C9431090C9431090C9431090C94310978
:100020000C9431090C9431090C94E6290C94BD2AE6
:100030000C94EF200C9431090C9431090C94310983
:100040000C9431090C9431090C9431090C94310948
:100050000C9431090C9450210C9431090C94310901
:100060000C9431090C9431090C9431090C94310928
:100070000C9431090C9431090C9431090C94310918
:100080000C9431090C9431090C9431090C94310908
:100090000C9431090C94310929003A003B003C00D2
:1000A0003D003E003F00A500AD00AC00AB004000AD
:1000B00041004200430044004500460035001E0058
:1000C0001F0020002100220023005F00600061006B
:1000D000A80024002500260027002D002E002A005D
:1000E0002B0014001A0008001500170035705C0082
:1000F0005D005E00A9002F001C0018000C0012001B
:1001000013003100390004001600070009000A003E
:10011000000059005A005B00AA0000000B000D000F
:100120000E000F0033002800E1001D001B00060038
:100130001900050034705700560055005400300077
:1001400011001000360037003800E100E0002C00FC
:10015000E300E2002C002C004C0000000000000036
:1001600000004B004E005200510050004F00E000D4
:100170000100010001000100010001000100010077
:100180000100010001000100010001000100010067
:100190000100010001000100010001000100010057
:1001A0000100010001000100010001000100010047
:1001B0000100010001000100010001000100010037
:1001C0000100010001000100010001000100010027
:1001D0000100010001000100010001000100010017
:1001E0000100010001000100000001000100010008
:1001F00001000000010001000100010001000100F8
:1002000001000100010001000100010001000100E6
:1002100001000100010001000100010001000100D6
:1002200001000100010001000100010001000100C6
:1002300001000000000000000000010001000100BA
:1002400001000100010001000100010001000100A6
:100250000100010001000100010001000100010096
:100260000100010001000100010001000100010086
:100270000100010001000100010001000100010076
:100280000100010001000100010001000100010066
:100290000100010001000100010001000100010056
:1002A0000100010001000100010001000100010046
:1002B0000100010001000100010001000100010036
:1002C0000000010001000100010000000100010028
:1002D0000100010001000100010001000100010016
:1002E0000100010001000100010001000100010006
:1002F00001000100010001000100010001000100F6
:1003000001000100010001000100000000000000E8
:1003100000000100010001000100010001000100D6
:1003200001000100010001000100010001000100C5
:1003300001000100010001000100010001000100B5
:1003400001000100010001000100010001000100A5
:100350000100010001000100010001000100010095
:100360000100010001000100010001000100010085
:100370000100010001000100010001000100010075
:100380000100010001000100010001000100010065
:100390000100010001000100000001000100010056
:1003A0000100000001000100010001000100010046
:1003B0000100010001000100010001000100010035
:1003C0000100010001000100010001000100010025
:1003D0000100010001000100010001000100010015
:1003E0000100000000000000000001000100010009
:1003F00001000100010001000100010001000100F5
:1004000001000100010001000100010001000100E4
:1004100001000100010001000100010001000100D4
:1004200001000100010001000100010001000100C4
:1004300001000100010001000100010001000100B4
:1004400001000100010001000100010001000100A4
:100450000100010001000100010001000100010094
:100460000100010001000100010001000100010084
:100470000000010001000100010000000100010076
:100480000100010001000100010001000100010064
:100490000100010001000100010001000100010054
:1004A0000100010001000100010001000100010044
:1004B0000100010001000100010000000000000037
:1004C0000000010001000100010001000100010025
:1004D0000100010001000100010001000100010014
:1004E0000100010001000100010001000100010004
:1004F00001000100010001000100010001000100F4
:1005000001000100010001000100010001000100E3
:1005100001000100010001000100010001000100D3
:1005200001000100010001000100010001000100C3
:1005300001000100010001000100010001000100B3
:1005400001000100010001000000010001000100A4
:100550000100000001000100010001000100010094
:100560000100010001000100010001000100010083
:100570000100010001000100010001000100010073
:100580000100010001000100010001000100010063
:100590000100000000000000000001000100010057
:1005A0000100010001000100010001000100010043
:1005B0000100010001000100010001000100010033
:1005C0000100010001000100010001000100010023
:1005D0000100010001000100010001000100010013
:1005E0000100010001000100010001000100010003
:1005F00001000100010001000100010001000100F3
:1006000001000100010001000100010001000100E2
:1006100001000100010001000100010001000100D2
:1006200000000100010001000100000001000100C4
:1006300001000100010001000100010001000100B2
:1006400001000100010001000100010001000100A2
:100650000100010001000100010001000100010092
:100660000100010001000100010000000000000085
:100670000000010001000100010001000100010073
:100680000100010001000100010001000100010062
:100690000100010001000100010001000100010052
:1006A0000100010001000100010001000100010042
:1006B0000100010001000100010001000100010032
:1006C0000100010001000100010001000100010022
:1006D0000100010001000100010001000100010012
:1006E0000100010001000100010001000100010002
:1006F00001000100010001000000010001000100F3
:1007000001000000010001000100010001000100E2
:1007100001000100010001000100010001000100D1
:1007200001000100010001000100010001000100C1
:1007300001000100010001000100010001000100B1
:1007400001000000000000000000010001000100A5
:100750000100010001000100010001000100010091
:100760000100010001000100010001000100010081
:100770000100010001000100010001000100010071
:100780000100010001000100010001000100010061
:100790000100010001000100010001000100010051
:1007A0000100010001000100010001000100010041
:1007B0000100010001000100010001000100010031
:1007C0000100010001000100010001000100010021
:1007D0000000010001000100010000000100010013
:1007E0000100010001000100010001000100010001
:1007F00001000100010001000100010001000100F1
:1008000001000100010001000100010001000100E0
:1008100001000100010001000100000000000000D3
:1008200000000100010001000100010001000100C1
:1008300001000100010001000100010001000100B0
:1008400001000100010001000100010001000100A0
:100850000100010001000100010001000100010090
:100860000100010001000100010001000100010080
:100870000100010001000100010001000100010070
:100880000100010001000100010001000100010060
:100890000100010001000100010001000100010050
:1008A0000100010001000100000001000100010041
:1008B0000100000001000100010001000100010031
:1008C0000100010001000100010001000100010020
:1008D0000100010001000100010001000100010010
:1008E0000100010001000100010001000100010000
:1008F00001000000000000000000010001000100F4
:1009000001000100010001000100010001000100DF
:1009100001000100010001000100010001000100CF
:1009200001000100010001000100010001000100BF
:1009300001000100010001000100010001000100AF
:10094000010001000100010001000100010001009F
:10095000010001000100010001000100010001008F
:10096000010001000100010001000100010001007F
:10097000010001000100010001000100010001006F
:100980000000010001000100010000000100010061
:10099000010001000100010001000100010001004F
:1009A000010001000100010001000100010001003F
:1009B000010001000100010001000100010001002F
:1009C0000100010001000100010000000000000022
:1009D0000000010001000100010001000100010010
:1009E00001000100010001000100010001000100FF
:1009F00001000100010001000100010001000100EF
:100A000001000100010001000100010001000100DE
:100A100001000100010001000100010001000100CE
:100A200001000100010001000100010001000100BE
:100A300001000100010001000100010001000100AE
:100A4000010001000100010001000100010001009E
:100A5000010001000100010000000100010001008F
:100A6000010000000100010001000100010001007F
:100A7000010001000100010001000100010001006E
:100A8000010001000100010001000100010001005E
:100A9000010001000100010001000100010001004E
:100AA0000100000000000000000001000100010042
:100AB000010001000100010001000100010001002E
:100AC000010001000100010001000100010001001E
:100AD000010001000100010001000100010001000E
:100AE00001000100010001000100010001000100FE
:100AF00001000100010001000100010001000100EE
:100B000001000100010001000100010001000100DD
:100B100001000100010001000100010001000100CD
:100B200001000100010001000100010001000100BD
:100B300000000100010001000100000001000100AF
:100B4000010001000100010001000100010001009D
:100B5000010001000100010001000100010001008D
:100B6000010001000100010001000100010001007D
:100B70000100010001000100010000000000000070
:100B8000000001000100010001000100010001005E
:100B9000010001000100010001000100010001004D
:100BA000010001000100010001000100010001003D
:100BB000010001000100010001000100010001002D
:100BC000010001000100010001000100010001001D
:100BD000010001000100010001000100010001000D
:100BE00001000100010001000100010001000100FD
:100BF00001000100010001000100010001000100ED
:100C000001000100010001000000010001000100DD
:100C100001000000010001000100010001000100CD
:100C200001000100010001000100010001000100BC
:100C300001000100010001000100010001000100AC
:100C4000010001000100010001000100010001009C
:100C50000100000000000000000001000100010090
:100C6000010001000100010001000100010001007C
:100C7000010001000100010001000100010001006C
:100C8000010001000100010001000100010001005C
:100C9000010001000100010001000100010001004C
:100CA000010001000100010001000100010001003C
:100CB000010001000100010001000100010001002C
:100CC000010001000100010001000100010001001C
:100CD000010001000100010001000100010001000C
:100CE00000000100010001000100000001000100FE
:100CF00001000100010001000100010001000100EC
:100D000001000100010001000100010001000100DB
:100D100001000100010001000100010001000100CB
:100D200001000100010001000100000000000000BE
:100D300000000100010001000100010001000100AC
:100D4000010001000100010001000100010001009B
:100D5000010001000100010001000100010001008B
:100D6000010001000100010001000100010001007B
:100D7000010001000100010001000100010001006B
:100D8000010001000100010001000100010001005B
:100D9000010001000100010001000100010001004B
:100DA000010001000100010001000100010001003B
:100DB000010001000100010000000100010001002C
:100DC000010000000100010001000100010001001C
:100DD000010001000100010001000100010001000B
:100DE00001000100010001000100010001000100FB
:100DF00001000100010001000100010001000100EB
:100E000001000000000000000000010001000100DE
:100E10000100010001000100643214643214783CC6
:100E20001E1E140A05000000000101010202030455
:100E300005050607090A0B0C0E0F111214151719D8
:100E40001B1D1F212325282A2C2F313436393B3EE8
:100E5000414346494C4F5255585A5D6164676A6D2B
:100E6000707376797C7F8386898C8F9295989B9E10
:100E7000A2A5A7AAADB0B3B6B9BCBEC1C4C6C9CB02
:100E8000CED0D3D5D7DADCDEE0E2E4E6E8EAEBED7B
:100E9000EEF0F1F3F4F5F6F8F9FAFAFBFCFDFDFEDD
:100EA000FEFEFFFFFFFFFFFFFFFEFEFEFDFDFCFB62
:100EB000FAFAF9F8F6F5F4F3F1F0EEEDEBEAE8E61C
:100EC000E4E2E0DEDCDAD7D5D3D0CECBC9C6C4C1EC
:100ED000BEBCB9B6B3B0ADAAA7A5A29E9B98959289
:100EE0008F8C898683807C797673706D6A67646184
:100EF0005D5A5855524F4C494643413E3B39363472
:100F0000312F2C2A282523211F1D1B1917151412D8
:100F1000110F0E0C0B0A0907060505040302020156
:100F200001010000000000000000010101010101B9
:100F30000101010202020202020202020303030390
:100F4000030303030404040404040505050505065E
:100F50000606060607070707080808080909090A18
:100F60000A0A0A0B0B0B0C0C0C0D0D0D0E0E0F0FBD
:100F70000F10101111111212131314141515161647
:100F80001717181819191A1A1B1C1C1D1D1E1F1FB4
:100F900020202122222324252526272728292A2B01
:100FA0002B2C2D2E2F2F3031323334353636373827
:100FB000393A3B3C3D3E3F40414243444647484925
:100FC0004A4B4C4D4F50515253555657585A5B5CF3
:100FD0005E5F606263646667696A6C6D6E70717390
:100FE000747678797B7C7E8081838486888A8B8DF9
:100FF0008F91929496989A9B9D9FA1A3A5A7A9AB28
:10100000ADAFB1B3B5B7B9BBBDBFC1C4C6C8CACC1B
:10101000CFD1D3D6D8DADCDFE1E4E6E8EBEDF0F2CD
:10102000F5F7FAFCFF12036B006500790062006FB0
:10103000006100720064000000160371006D006B17
:10104000006200750069006C0064006500720000B9
:10105000000403090409026D00040100A0FA090458
:1010600000000103010100092111010001224000DB
:101070000705810308000A090401000103010200B9
:10108000092111010001224D000705820308000A11
:1010900009040200010300000009211101000122DE
:1010A00036000705830308000A0904030001030052
:1010B00000000921110100012239000705840320E5
:1010C00000011201100100000008EDFE6060010047
:1010D0000102000105010906A101050719E029E740
:1010E00015002501950875018102050819012905DA
:1010F0009505750191029501750391010507190088
:1011000029F71500250195F875018102C00501092F
:1011100080A10185021601002603001A81002A839E
:1011200000751095018100C0050C0901A10185031E
:10113000160100269C021A01002A9C0275109501D6
:101140008100C005010902A1010901A100050919D9
:101150000129051500250195057501810295017587
:101160000381010501093009311581257F9502753B
:1011700008810609381581257F95017508810605C6
:101180000C0A38021581257F950175088106C0C0BB
:1011900005010906A101050719E029E71500250148
:1011A00095087501810295017508810105081901ED
:1011B00029059505750191029501750391010507B2
:1011C000190029FF150026FF00950675088100C04B
:1011D00011241FBECFEFD0E2DEBFCDBF04B603FEA9
:1011E00027C08091CD029091CE02A091CF02B09104
:1011F000D0028730904BA740B04BD1F41092CD0273
:101200001092CE021092CF021092D00214BE84B778
:10121000877F84BF0FB6F894A8958091600088619D
:1012200080936000109260000FBEE0E0F0EF09953F
:1012300011E0A0E0B1E0E8E9FCE500E00BBF02C08E
:1012400007900D92A034B107D9F722E0A0E4B1E0F5
:1012500001C01D92AD3CB207E1F70E9437270C9404
:10126000152E0C94000090E080E0089508950895F4
:1012700081E00895089581E008950C9438090E9452
:1012800029192FEF84E39CE0215080409040E1F742
:1012900000C000000C947321EF92FF920F931F93F4
:1012A000CF93DF937C01DC010D911C91119780910C
:1012B000BB01811143C012968C918823D1F1C801E2
:1012C0000E94AE1EC82F682FC8010E94571EB80189
:1012D0008C2F0E94B70AEC01B7010E943D098823B8
:1012E00009F468C0B701CE010E94C00C882309F43C
:1012F00061C0CE33B0E7DB0770F4C433E0E7DE074C
:1013000010F5C130F0E7DF0709F45CC050F5C115F6
:10131000D04709F44AC081E08093420180934301A1
:10132000C701DF91CF911F910F91FF90EF900C9427
:101330003B09C8010E94851EC82FC9CFC8010E9461
:10134000AE1EB801C6CFFE01E553F047D701129695
:101350008C91E930F10508F040C0E95EF14D0C9444
:10136000C42DCE01825090474397A8F6F7018281A1
:101370008823B1F20E947020811102C00E944F2088
:101380000E948D2090E09093BF028093BE02FE01E8
:10139000E350F0478091BE028160E231F10508F030
:1013A00047C0E05EF14D0C94C42DF701828181119C
:1013B0000E943F0980E0DF91CF911F910F91FF9034
:1013C000EF900895D70112968C91882399F380911C
:1013D0006702816080936702EDCF882359F30E94F2
:1013E0006811E8CF882331F30E945E11E3CF882390
:1013F00009F30E943B10DECF8823E1F20E945310D4
:10140000D9CF8823B9F20E947210D4CF882391F2E9
:101410000E948A10CFCF882369F20E94A210CACFFF
:10142000882341F20E94BA10C5CF8091BE0282602B
:101430008093BE028091BE020E9491200E942919D1
:10144000B9CF8091BE028460F3CF8091BE028860E4
:10145000EFCF8091BE028061EBCF8091BE028062AF
:10146000E7CF8091BE028064E3CF8091BE028068A6
:10147000DFCF8091BE028C60DBCF8091BE028E7F79
:10148000D7CF8091BE028D7FD3CF8091BE028B7F5C
:10149000CFCF8091BE02877FCBCF8091BE028F7E5F
:1014A000C7CF8091BE028F7DC3CF8091BE028F7B5C
:1014B000BFCF8091BE028F77BBCF8091BE02837F6A
:1014C000B7CF9091BE02892F97FB87F98058B0CF94
:1014D000882361F0109242010E941F2190934101E4
:1014E0008093400182E00E948E1664CF8091420179
:1014F00081110FC080914001909141010E942B21E8
:10150000883C910530F486E20E94631586E20E94D1
:101510003F1682E00E9495164DCF882351F010921D
:1015200043010E941F21909341018093400180E27A
:10153000DACF8091430181110FC0809140019091D9
:1015400041010E942B21883C910530F487E20E94E2
:10155000631587E20E943F1680E2DCCF0C940F0DEA
:101560000C94110D0C943A090C94B20A0895972F1B
:1015700070E022E1929F600D711D1124FB019CE639
:10158000899FE00DF11D1124EE0FFF1FE856FF4F5C
:10159000859194910895FC01EE0FFF1FE85EF14FD5
:1015A0008591949108950E94B70A0E94440C9C0171
:1015B000811540E4940708F097C0211580E33807AF
:1015C00008F0FAC0203E310508F074C0203C310517
:1015D00008F0E5C0283A310588F4253A310508F0CD
:1015E000E2C02130310509F477C0C9010497813A7E
:1015F000910508F471C030E020E06EC0C901885A3E
:1016000091094597C0F7283A310509F4FEC0293AF7
:10161000310509F4FDC02A3A310509F4FCC02B3A22
:10162000310509F4FBC02C3A310509F4FAC02B3B13
:10163000310509F4F9C02C3B310509F4F8C02D3A05
:10164000310509F4F7C0203B310509F4F6C02E3A04
:10165000310509F4F5C02F3A310509F4F4C0213BF6
:10166000310509F4F3C0223B310509F4F2C0233BF4
:10167000310509F4F1C0243B310509F4F0C0253BE4
:10168000310509F4EFC0263B310509F4EEC0273BD4
:10169000310509F4EDC0283B310509F4ECC0293BC4
:1016A000310509F4EBC02A3B310509F4EAC020E01A
:1016B00034E412C0211590E2390780F42F3F310540
:1016C00009F050F4283E310538F0C901805F9109D6
:1016D0003065409708F08FCFC9010895C9019F7008
:1016E0000E94CB0A9C01F8CF8115944508F041C0B7
:1016F000211583E5380708F06AC0211592E53907FE
:1017000038F5211541E5340708F05CC0211580E566
:10171000380708F454C0C90134E0969587953A9586
:10172000E1F78370422F46954695437090E2499FBA
:10173000A0011124582B822F837021E030E002C0D9
:10174000220F331F8A95E2F7242B352B3C68C4CF38
:10175000C9018370992741E050E002C0440F551F32
:101760008A95E2F72695269580E2289F900111241C
:10177000EBCF211596E5390748F4922F88272115DC
:101780003545C8F59C01246F306AA6CFC901905633
:101790003F708115904108F02ECF30629DCFC90176
:1017A000805C91099DCF253A310549F1263A3105F2
:1017B00049F522E830E490CF3327306C8DCF3F706D
:1017C000306A8ACF322F2227216F306A85CFC90134
:1017D0008370992741E050E002C0440F551F8A955D
:1017E000E2F72695269580E2289F90011124242B6C
:1017F000352B3A6871CF88279F719C01CECF21E8A5
:1018000030E46ACF23E830E467CF22EE34E464CFDB
:1018100029EE34E461CF2AEE34E45ECF25EB34E4E4
:101820005BCF26EB34E458CF23EB34E455CF24EBE5
:1018300034E452CF27EB34E44FCF2CEC34E44CCFDC
:101840002DEC34E449CF23E835E446CF2AE835E4EB
:1018500043CF22E935E440CF24E935E43DCF21E20E
:1018600036E43ACF23E236E437CF24E236E434CF0D
:1018700025E236E431CF26E236E42ECF27E236E405
:101880002BCF2AE236E428CF803E910581F1C8F4BF
:101890008133910509F462C048F48932910509F455
:1018A00056C08A32910509F460C0089589339105C4
:1018B000B9F082389105A1F08533910509F440C053
:1018C0000895863E910561F138F4823E9105B1F0AC
:1018D000833E9105E1F00895873E910551F1089509
:1018E0002091BE022370D9F080EE90E008952091FF
:1018F000BE0220FF14C089E390E008952091BE024B
:1019000022FF0DC024FD09C083EE90E008952091D0
:10191000BE0222FD31C024FF02C090E080E00895A5
:101920002091BE0223FFFBCF24FDF7CF87EE90E08E
:1019300008952091BE0223FFEECF86EE90E0089539
:101940002091BE0225FFEBCF89E290E0089520911F
:10195000BE0225FFE4CF85E390E008952091BE020A
:1019600026FFDDCF8AE290E008952091BE0226FF97
:10197000D6CF81E390E0089582EE90E00895089537
:101980000F931F93CF938C01FB018281811106C0BD
:10199000C1E08C2FCF911F910F910895C0915101FB
:1019A000C11125C00531104799F70E94BF0C81E095
:1019B000809351010E941F219093500180934F0109
:1019C0001092440110924601109245011092480174
:1019D0001092470110924A011092490110924C0155
:1019E00010924B0110924E0110924D01D2CF809176
:1019F0004F01909150010E942B21883C910540F6A7
:101A000080914401E82FF0E0EE0FFF1FEB5BFE4FEB
:101A1000118300838F5F80934401C0E0BACF0C94A0
:101A200036090C94370985B7806885BF85B780680B
:101A300085BFA6E2B1E061E070E08D91E82FE2950C
:101A4000EF70F0E041A18F709B0101C0220F8A95D9
:101A5000EAF7922F9095942391A382A1822B82A3DF
:101A600081E0AC32B80749F7A4E1B1E061E070E091
:101A70008D91E82FE295EF70F0E041A18F709B010E
:101A800001C0220F8A95EAF7922F9095942391A393
:101A900082A1822B82A381E0A632B80749F7EAE649
:101AA000F1E0A2E5B1E082E891E011921192119289
:101AB00011921D921D921D921D928E179F07A9F7DC
:101AC0000C94AE0A2F923F924F925F926F927F9248
:101AD0008F929F92AF92BF92CF92DF92EF92FF923E
:101AE0000F931F93CF93DF93CDB7DEB72B970FB62E
:101AF000F894DEBF0FBECDBF82E5282E81E0382EE0
:101B000006E211E01E830D8338862F82C12CD12C72
:101B10007601C394AF81B8858D909D90AD90BD90B6
:101B2000B887AF83FD011292129212921292FB8734
:101B3000EA87AD81BE818D91BE83AD83E82FE295AA
:101B4000EF70F0E091A18F7001E010E002C0000F93
:101B5000111F8A95E2F71A830983802F892B81A3AD
:101B600082A100950987802382A310EA1A95F1F7D4
:101B700024E131E03C832B8390E080E0AB81BC81A9
:101B80007D90BC83AB83272D22952F7030E0D90147
:101B900090965C90AA85BB854D915D916D917C91ED
:101BA000272D2F7001E010E002C0000F111F2A95B1
:101BB000E2F79801252109F07AC097018601082EE5
:101BC00004C0000F111F221F331F0A94D2F72801EF
:101BD00039014429552966297729AA85BB854D9362
:101BE0005D936D937C93139701968231910531F645
:101BF00081A11985182311A382A1B9818B2B82A3FE
:101C0000EA85FB8580819181A281B381881699063E
:101C1000AA06BB0649F0F1E0F09382010E941F2161
:101C200090938401809383010F8118850A56114097
:101C300009F070CF809182018823E9F080918301BF
:101C4000909184010E942B210697A8F02AE631E0AA
:101C5000F10181919191A191B1911F01F9018193BC
:101C60009193A193B1939F01FAE62F16F1E03F06FD
:101C700079F7109282010E94B00A81E02B960FB68C
:101C8000F894DEBF0FBECDBFDF91CF911F910F91B2
:101C9000FF90EF90DF90CF90BF90AF909F908F908C
:101CA0007F906F905F904F903F902F900895412CC0
:101CB000512C32018ECFCF93DF9300D000D0CDB71F
:101CC000DEB794E0899FF0011124E659FE4F808130
:101CD0009181A281B381BC01CD010F900F900F9033
:101CE0000F90DF91CF91089508959C01CB0165B1CC
:101CF000542F5095562365B1462B6FB7F894820F39
:101D0000931F2817390711F46FBF0895F9017191D6
:101D10009F01E8E045B9000000C077FF55B9770F93
:101D2000000000C000C000C055B900C0EA9591F79E
:101D3000E8CFFC0194B1942B94B99B01220F331F7F
:101D4000620F731FCF010E94750E87EC90E0019720
:101D5000F1F700C00000089540E20C94990EAF9294
:101D6000BF92CF92DF92EF92FF920F931F93CF9388
:101D7000DF937C01E901842F242F662309F43FC0FF
:101D8000C42ED12C8FEF90E0861B9109489F8001D3
:101D9000499F100D1124212F812F9927C81AD90A84
:101DA0009CE3A92EB12CC701B5010E949C2DFB011B
:101DB000BC01C69EC001C79E900DD69E900D1124F9
:101DC000B5010E949C2DE330F10509F443C080EF7A
:101DD000E816F10468F4E130F10591F13297A1F1D0
:101DE0008CE3E816F10440F180E020E040E007C019
:101DF000E430F10599F1842F861B3597A9F7E42F7C
:101E0000F0E0EB5DF04F4491E22FF0E0EB5DF04F3E
:101E10009491E82FF0E0EB5DF04FE49149839883D3
:101E2000EA83DF91CF911F910F91FF90EF90DF90A8
:101E3000CF90BF90AF900895812F262F210FDFCF35
:101E4000812F242F461BDBCF862F810FE42F412FBC
:101E50002E2FD5CFE42FE61B842FF9CF842F462FCA
:101E6000410FCDCF88E090E00C94D52DAB01BC01A3
:101E700088E090E00C94F32DCF93DF9300D000D056
:101E8000CDB7DEB7E4E9F2E083E0808311828FEF23
:101E9000828383838091940290919502A09196020F
:101EA000B091970289839A83AB83BC83BC01CD0137
:101EB0000F900F900F900F90DF91CF910C94360FF1
:101EC00080919402ECE9F2E080FF06C06AE070E0E5
:101ED0008CE992E00C94AC0E11821082128233963F
:101EE00082E0EA3BF807C1F7F1CFECE9F2E0818349
:101EF00060834283339692E0EA3BF907C1F70C9482
:101F0000600FEF92FF920F931F93CF93DF9300D058
:101F10000F92CDB7DEB7182FE92EF62E042F809141
:101F2000940290919502A0919602B09197028093AD
:101F3000980290939902A0939A02B0939B02809189
:101F4000940280FF1FC09E012F5F3F4F812F9E2D67
:101F50000E94AF0E8091980210FB87F9809398023F
:101F60001695809199028078182BE0FA17F9109352
:101F70009902F0929A0200939B024B8169818A81B7
:101F80000E94750F0F900F900F90DF91CF911F91CE
:101F90000F91FF90EF9008950F931F93CF93DF93CE
:101FA00000D000D00F92CDB7DEB789839D83062F76
:101FB000142F8091940280FF54C0982F9E77923006
:101FC00091F589819D810E94810F80919402B98150
:101FD000B0FB87F980939402B69580919502807842
:101FE000B82B8D8180FBB7F9B093950200939602D0
:101FF000109397028091940290919502A09196027D
:10200000B091970289839A83AB83BC83BC01CD01D5
:102010000F900F900F900F900F90DF91CF911F9125
:102020000F910C94360F982F96959F732EE3290FDE
:102030002F73243018F410919702C7CF965C9F73CA
:10204000993018F6881F8827881F909195029D83E4
:10205000990F982B9983AD81A7FBAA27A0F9AD838F
:10206000B4CF0F900F900F900F900F90DF91CF9102
:102070001F910F910895E4E9F2E02081221F2227A9
:10208000221F30919502432F440F842F822B37FB60
:10209000992790F9089668E671E00E94B02D438177
:1020A00062810C94CC0F20919402221F2227221FC0
:1020B00030919502432F440F842F822B37FB9927B1
:1020C00090F98830910540F4805A9E4F40919702D4
:1020D000609196020C94CC0F089768E671E00E941C
:1020E000B02DF4CF60919602683F90F4685F8091C4
:1020F0009402881F8827881F90919502292F220F0C
:1021000097FB992790F940919702822B0C94CC0F62
:102110006FEFEDCF60919602683090F0685080913B
:102120009402881F8827881F90919502292F220FDB
:1021300097FB992790F940919702822B0C94CC0F32
:1021400060E0EDCF40919702483F90F4485F809166
:102150009402881F8827881F90919502292F220FAB
:1021600097FB992790F960919602822B0C94CC0FE3
:102170004FEFEDCF40919702483090F0485080915A
:102180009402881F8827881F90919502292F220F7B
:1021900097FB992790F960919602822B0C94CC0FB3
:1021A00040E0EDCFCF93DF9300D000D0CDB7DEB7C6
:1021B0009091940290FF47C09178811132C0926053
:1021C000909394028091940290919502A09196022E
:1021D000B091970289839A83AB83BC83BC01CD0104
:1021E0000E94360F80919402982F9E77923009F5C5
:1021F00010929A01881F8827881F90919502292F95
:10220000220F97FB992790F94091970260919602CF
:10221000822B0F900F900F900F90DF91CF910C9425
:10222000CC0F893110F09063CBCF8F73880F982B30
:10223000C7CF982F9695925C9F739631D8F691E010
:1022400090939A01D7CF0F900F900F900F90DF913E
:10225000CF9108958091670281608093670281E049
:1022600080939B010E947020811104C00E944F2026
:102270000E943C0F0E94320F60939402709395026B
:1022800080939602909397026E7761F40E943C0FC0
:102290000E94320F6093940270939502809396028D
:1022A0009093970281E080939A018091940280FF3D
:1022B00004C086958F730C94D21008958091940277
:1022C00086958F738F5F893108F081E00C94D2106E
:1022D000CF93DF9300D000D0CDB7DEB790919402BA
:1022E000892F8E7F90FF8160809394028091940269
:1022F00090919502A0919602B091970289839A835A
:10230000AB83BC83BC01CD010E94360F8091940247
:1023100080FF0AC086958F730F900F900F900F90DB
:10232000DF91CF910C94D21010929A019FEFA0E709
:10233000B2E09150A040B040E1F700C000000F9023
:102340000F900F900F90DF91CF910C94600FCF936F
:10235000C82F80919801909199010E942B21EC2F18
:10236000F0E0EF5DF14FE491E817190609F010F580
:102370000E941F219093990180939801E091970109
:10238000F0E0EB5DF14F449180919402881F882723
:10239000881F90919502292F220F97FB992790F97A
:1023A00060919602822B0E94810F809197018F5F2E
:1023B00080939701CF910895CF93C82F8091950175
:1023C000909196010E942B21EC2FF0E0E25EF14FFC
:1023D000E491E817190609F0E8F40E941F21909390
:1023E00096018093950140919702609196028091A9
:1023F0009301909194010E94810F8091930190919B
:102400009401019668E671E00E949C2D90939401DE
:1024100080939301CF910895CF92DF92EF92FF9234
:102420001F93CF93DF93182F809191019091920188
:102430000E942B21E12FE695F0E0E25EF14FE4915E
:10244000E817190609F0C0F50E941F219093920128
:10245000809391018CE9E82E82E0F82ED0E0C0E074
:1024600098E6C92EDD24D39480918F01909190013C
:102470008C0F9D1FB6010E949C2D970140919702E1
:10248000609196020E94AF0EA49683E0E80EF11CC4
:10249000C83681E0D80741F70E94600F80918F0114
:1024A0009091900110FF10C00196BE010E949C2DDA
:1024B0009093900180938F01DF91CF911F91FF90B6
:1024C000EF90DF90CF9008950197F2CFAF92BF9237
:1024D000CF92DF92EF92FF920F931F93CF93DF93F0
:1024E000C82FDD24DA9480FD02C0DD24D3948091CE
:1024F0008D0190918E010E942B21C695EC2FF0E06A
:10250000E55EF14FE491E817190611F008F053C0A9
:102510000E941F2190938E0180938D01CCE9D2E01F
:1025200010E000E097E0A92EB12C198218821A82DF
:1025300087E0E82EF12CC12C80918C018C0D87FD59
:10254000865F082E000C990B80179107E9F4209103
:1025500097022E9DC0012F9D900D1124B5010E9460
:10256000B02D462F80919402881F8827881F909154
:102570009502592F550F97FB992790F99E0160916D
:102580009602852B0E94AF0ECD0C81E0E81AF1086F
:1025900099F60F5F1F4F23960A30110531F60E94FE
:1025A000600F80918C0191E0D91212C081110EC090
:1025B00089E080938C01DF91CF911F910F91FF9063
:1025C000EF90DF90CF90BF90AF9008958150F1CF02
:1025D00090E00196B8010E94B02DEBCFBF92CF9250
:1025E000DF92EF92FF920F931F93CF93DF93CDB7BC
:1025F000DEB76E970FB6F894DEBF0FBECDBF182FB3
:1026000080918A0190918B010E942B21E12FF0E0B3
:10261000E85EF14FE491E817190611F008F07AC06E
:102620000E941F2190938B0180938A018E010F5F7E
:102630001F4FF12CE12C6801D80111961C921197C3
:102640001C9212961C92B12C9091000180918901EC
:10265000B99E800D11248A300CF089E087FD80E05E
:10266000082E000C990B8E159F05A1F48091940201
:10267000881F8827881F90919502592F550F97FB27
:10268000992790F998014091970260919602852BC5
:102690000E94AF0EB394B7E0BB12D6CFEFEFEE1AA5
:1026A000FE0A0D5F1F4FFAE0EF16F10429F62CE940
:1026B00032E009E010E05AE0E52EF12CC801B70144
:1026C0000E94B02DFC01EE0FFF1FE80FF91FEC0D6B
:1026D000FD1D8181D90111968C93119780818C9376
:1026E000828112968C930F5F1F4F2D5F3F4F0331F6
:1026F000110521F70E94600F9091000180918901DE
:102700009130E1F48A3FB4F489EF809389018FEF2F
:10271000809300016E960FB6F894DEBF0FBECDBF5A
:10272000DF91CF911F910F91FF90EF90DF90CF90AD
:10273000BF900895815080938901ECCF81312CF0B6
:1027400080E18093890181E0E3CF8F5FF4CFCF9365
:10275000DF9380918701909188010E942B21883E10
:10276000934028F10E941F21909388018093870154
:1027700080918501909186010196817099279093AF
:10278000860180938501CCE9D2E09E0140919702B9
:102790006091960290E080E00E94AF0E239682E066
:1027A000CA3BD80791F7DF91CF910C94600FDF916E
:1027B000CF91089580919A01882371F180919402BC
:1027C00086958F739EE3980F9F73943018F4825010
:1027D0000C94A7119AE3980F9F73933018F48650C6
:1027E0000C94DC1197E3980F9F73963018F489507E
:1027F0000C940C1291E3980F9F73963018F48F503D
:102800000C9466129BE2980F9F73933018F48551D5
:102810000C94EE120C94A71308959093A101809349
:10282000A0010895E091A001F091A101309721F05D
:102830000190F081E02D099480E00895E091A001DD
:10284000F091A101309721F00280F381E02D0994ED
:102850000895E091A001F091A101309721F004804A
:10286000F581E02D0994089520919E0130919F01FA
:102870002817390771F090939F0180939E01E09192
:10288000A001F091A101309721F00680F781E02DA1
:102890000994089520919C0130919D0128173907D2
:1028A00071F090939D0180939C01E091A001F091C3
:1028B000A101309721F00084F185E02D099408955D
:1028C00008950C9460140E9416210E94130D0E941A
:1028D000DF210C942A114F925F926F927F929F9208
:1028E000AF92BF92CF92DF92EF92FF920F931F931E
:1028F000CF93DF9300D000D00F92CDB7DEB70E9408
:10290000620D23EAA22E21E0B22E10E000E0902E0C
:10291000802F0E945B0E6B017C01F501419051906C
:10292000619071905F014C145D046E047F0409F4A2
:1029300075C08091670281FD0E94740E90E080E076
:102940004C245D246E247F24B301A201082E04C010
:1029500076956795579547950A94D2F740FF59C0E9
:1029600089839A82412C512C3201439404C0440C37
:10297000551C661C771C8A95D2F7C420D520E6200A
:10298000F72081E0CD28CE28CF2809F480E08B8382
:102990000E941F218160782F9D838C8349815A81F9
:1029A0006B818D810E943A15000F111F000F111FBE
:1029B000F801ED55FE4F80819181A281B38184257C
:1029C0009525A625B72580839183A283B3830E9492
:1029D0008C240E9412149091A2018917B1F10E94D7
:1029E00012148093A2010F900F900F900F900F90F0
:1029F000DF91CF911F910F91FF90EF90DF90CF90DB
:102A0000BF90AF909F907F906F905F904F900C948D
:102A1000B40A01968231910509F096CF0F5F1F4FDE
:102A20000630110509F073CF8FEF89838A831B82EB
:102A30000E941F218160782F9D838C8349815A8158
:102A40006B818D810E943A15C2CF0F900F900F902D
:102A50000F900F90DF91CF911F910F91FF90EF900A
:102A6000DF90CF90BF90AF909F907F906F905F90DE
:102A70004F900895CF93DF93CDB7DEB72B970FB666
:102A8000F894DEBF0FBECDBF4F83588769877A8722
:102A90008B871E8285E0FE013796DE01119601903C
:102AA0000D928A95E1F749815A816B817C818D81F4
:102AB0009E812B960FB6F894DEBF0FBECDBFDF917F
:102AC000CF910C94B11B882309F4D8C0823871F4DB
:102AD0000E94121481FDD2C089E30E94561F0E94F9
:102AE000202089E30E94931F0C942020833859F4FE
:102AF0000E94121480FDC2C083E50E94561F0E94EE
:102B0000202083E5EFCF843859F40E94121482FD0F
:102B1000B5C087E40E94561F0E94202087E4E2CFC0
:102B20009CEF980F913A18F40E94561FDDCF90E267
:102B3000980F983050F4877091E001C0990F8A95F2
:102B4000EAF7892F0E94D71FCFCF9BE5980F9330CC
:102B500070F4853A31F0863A39F083E890E00C94CD
:102B6000341481E890E0FBCF82E890E0F8CF98E55C
:102B7000980F953108F082C0883A09F440C0893A2C
:102B800009F440C08A3A09F440C08B3A09F440C0C5
:102B90008C3A09F440C08B3B09F440C08C3B09F4EB
:102BA00040C08D3A09F440C0803B09F440C08E3AE1
:102BB00009F440C08F3A09F440C0813B09F440C099
:102BC000823B09F440C0833B09F440C0843B09F4D4
:102BD00040C0853B09F440C0863B09F440C0873BB8
:102BE00009F440C0883B09F440C0893B09F440C067
:102BF0008A3B09F440C090E080E00C944A1482EED5
:102C000090E0FBCF89EE90E0F8CF8AEE90E0F5CF30
:102C100085EB90E0F2CF86EB90E0EFCF83EB90E096
:102C2000ECCF84EB90E0E9CF87EB90E0E6CF8CEC43
:102C300090E0E3CF8DEC90E0E0CF83E891E0DDCF52
:102C40008AE891E0DACF82E991E0D7CF84E991E098
:102C5000D4CF81E292E0D1CF83E292E0CECF84E282
:102C600092E0CBCF85E292E0C8CF86E292E0C5CF7A
:102C700087E292E0C2CF8AE292E0BFCF0895882334
:102C800009F44BC0823871F40E94121481FF45C0D0
:102C900089E30E94561F0E94202089E30E94931F0F
:102CA0000C942020833859F40E94121480FF35C000
:102CB00083E50E94561F0E94202083E5EFCF8438D1
:102CC00059F40E94121482FF28C087E40E94561F04
:102CD0000E94202087E4E2CF9CEF980F913AF0F217
:102CE00090E2980F983050F4877091E001C0990FEE
:102CF0008A95EAF7892F0E94DD1FD2CF9BE5980FB6
:102D0000933020F490E080E00C943414885A85319C
:102D100020F490E080E00C944A140895882321F078
:102D20000E94D71F0C9420200895882321F00E9430
:102D3000DD1F0C94202008958F929F92AF92BF9236
:102D4000DF92EF92FF920F931F93CF93DF9300D008
:102D500000D00F92CDB7DEB77C016D837983FC0183
:102D6000058102950F70128111110E94F61F0E94B9
:102D70004F1FD82E882371F01123A1F08D81805E22
:102D8000883080F082E00E94391F0E944F1F91E03E
:102D9000D82ED926E981E295EF70F0E0EE5CF14D96
:102DA0000C94C42DD12CF6CF09810F70F981F07FDE
:102DB00011F00295007F1123B1F0002361F08D81A5
:102DC000805E883018F02D81211109C0802F0E946B
:102DD000D71F0E9420208D810E94631515C0802F6F
:102DE0000E94E81FF6CF8D810E943F16002361F0FC
:102DF0008D81805E883018F03D81311129C0802F8F
:102E00000E94DD1F0E942020DD2009F4D3C10E9412
:102E10002C1F80FDCFC1F70112820E94261F0E9445
:102E20006F1DC7010E94EB180E94261F0F900F9084
:102E30000F900F900F90DF91CF911F910F91FF9006
:102E4000EF90DF90BF90AF909F908F900C94911D6A
:102E5000802F0E94EE1FD6CF49814F70B42E59812A
:102E6000507F503219F0B29480EFB8228D818823C0
:102E700069F0813029F1112369F1002359F0F7013C
:102E8000858180FFA8CF8F70858304C0112361F0F6
:102E9000011104C08B2D0E948E16B6CF8B2D0130F0
:102EA000D1F70E940A20B0CF011106C00E940D2068
:102EB0008B2D0E949516A8CF013009F4A5CFF6CF2F
:102EC000112321F0063008F09FCFE4CF053008F041
:102ED0009BCFEECF002361F38D810E943F1694CFEC
:102EE000898186958695837069F0813009F08CCF51
:102EF0008D8199819370111102C090E080E00E9451
:102F00004A1482CF8D8199819370111102C090E093
:102F100080E00E94341478CF8D81112329F00E9423
:102F20009A230E94812470CF0E940224FACF8981C3
:102F3000837009F05FC0111167CF2D81229526950E
:102F40002770220F220F8D818F7090E0B0E0A0E0FB
:102F50004C015D01022E04C0880C991CAA1CBB1CEC
:102F60000A94D2F7FD8160E070E0CB01F4FF0FC05E
:102F70006FE070E080E090E004C0660F771F881F6C
:102F8000991F2A95D2F76095709580959095298123
:102F90002695269523702D832230B1F0233019F128
:102FA0009B01AC01282939294A295B2929833A83C5
:102FB0004B835C833D8169817A818B819C81313037
:102FC000B1F00E94FC1C20CF9B01AC0128293929BB
:102FD0004A295B2929833A834B835C83CA01B9015F
:102FE0000E94261D11CF0E94FC1CC501B4010E9445
:102FF000D21C0ACF8695112311F089818170882314
:1030000009F402CF2D81229526952770220F220FD9
:103010008D818F7090E0B0E0A0E04C015D01022E48
:1030200004C0880C991CAA1CBB1C0A94D2F73D81D1
:1030300060E070E0CB0134FF0FC06FE070E080E033
:1030400090E004C0660F771F881F991F2A95D2F75A
:103050006095709580959095498146954695437009
:103060004D834230B1F0433019F19B01AC01282966
:1030700039294A295B2929833A834B835C833D8123
:1030800069817A818B819C813130B1F00E94021E6E
:10309000BBCE9B01AC01282939294A295B29298308
:1030A0003A834B835C83CA01B9010E942C1EACCECB
:1030B0000E94021EC501B4010E94D81DA5CE3D810B
:1030C000323F09F447C080F4303F79F1313FD9F104
:1030D000832F805E8031D0F0112309F456C0011196
:1030E0007ACE89818F7133C04D81433FD1F1443F06
:1030F00099F7112309F43FC089818F7189830E9458
:103100006F1D63E089810E94301F7ECE5D815F70FC
:103110005D8389818F71112321F00E946F1D8D8144
:10312000BACE0E94911D8D81C4CE112341F005308D
:1031300008F06ACE89818F710E94B61D65CE063077
:1031400008F062CEF7CF89818F71112339F00E9488
:103150006F1D5ACE89818F711123C9F30E94911D71
:1031600053CE112329F089818F710E945A1D4CCEB4
:103170000E94501D49CE81E00E94391F023008F4A0
:1031800043CE82E00E94391F3FCE0111A5CE898136
:103190008F71E4CF49814F706D81C7010E9433095F
:1031A0000E944B1C31CE49814F706D81C7010E9436
:1031B000B60A2ACE0F900F900F900F900F90DF91CC
:1031C000CF911F910F91FF90EF90DF90BF90AF9044
:1031D0009F908F9008950F931F93CF93DF93EC01EF
:1031E0008B819C81892B29F08881998189238F3F4C
:1031F00029F4DF91CF911F910F910895CE010E9484
:103200004C098823B1F3688179818A810E94FC1E70
:103210008C010E94561E0E94C71CB801CE01DF918E
:10322000CF911F910F910C949C160E94F61F0E9443
:1032300007200E94C91F0E9420200E9472250E9420
:10324000812490E080E00E94341490E080E00C94AF
:103250004A140E94E51F0C9415190E94F01E282F95
:10326000892F82958F70903C80F48A30B0F484303E
:1032700020F4823090F480E008958630E1F781E018
:10328000203E88F0213FB9F70EC08C3011F08F300E
:1032900091F793FB882780F9089581E0203F39F06A
:1032A00018F4203E40F70895243F29F7FCCF0895F5
:1032B000CF93DF9300D000D00F92CDB7DEB70F9041
:1032C0000F900F900F900F90DF91CF910895CF93B3
:1032D000DF9300D000D000D0CDB7DEB726960FB672
:1032E000F894DEBF0FBECDBFDF91CF9108951F933D
:1032F000CF93DF93E091BC0116E08091BD018E1366
:1033000004C0DF91CF911F910895CE2FD0E01E9F72
:10331000F0011124E254FE4F40815181628173819A
:10332000848195810E946719FE013196E770E5CF8F
:103330004091EE015091EF016091F0017091F10127
:103340008091F2019091F3010C9467191F93CF9330
:10335000DF938091F301807FC1F48091F001882395
:10336000A1F08091BC01C091BD016091EE0170910E
:10337000EF014091F1015091F201D62FD723DA01EC
:10338000A095B09516E0C81304C0DF91CF911F91AE
:10339000089590E04115510511F0DF3F31F4019699
:1033A0008770F1CF2A0F3B1F17C0189FF001199F9C
:1033B000F00D1124E254FE4F21812713F0CF20811C
:1033C0002613EDCF22812111EACF238134812417E6
:1033D000350740F3241B350B283C310500F72091BD
:1033E000F3012F7020612093F30126E0289FF00164
:1033F000299FF00D1124ED53FE4F80818F70806165
:1034000080838EEE91E00E94EB18DF91CF911F91A7
:103410000C9477199F92AF92BF92CF92DF92EF9266
:10342000FF920F931F93CF93DF93CDB7DEB72B9708
:103430000FB6F894DEBF0FBECDBF8C0185E0F8015A
:10344000DE01179601900D928A95E1F7D8014C9113
:1034500011965C9111971296EC9012978091F10160
:103460009091F201009709F46BC12091EE01309127
:10347000EF01632F62236F3F09F462C11396CD9071
:10348000DC909090F001992009F4F8C0C816D90694
:1034900008F43FC0F601E81BF90BCF01FF24F394B9
:1034A000883C910508F0F12C8EEEA82E81E0B82E14
:1034B0008091F301982F907FFF2009F4B7C09111FC
:1034C00080C0FE2C35132AC0241328C0E11026C06A
:1034D0008F7080618093F3010E949819C5010E944A
:1034E000EB188091F301D80115968C938F2D2B96B4
:1034F0000FB6F894DEBF0FBECDBFDF91CF911F9105
:103500000F91FF90EF90DF90CF90BF90AF909F9082
:103510000895809590958C0D9D1DC0CFCD2829F0E4
:10352000842F85238F3F09F019C180E0B82FB17037
:10353000DB2EE091BC012091BD0136E080FD1CC076
:10354000EE20A1F28091F30181608093F301F12CD0
:10355000CDCF8E2F90E03E9FF0011124E254FE4F1C
:103560006181651306C06081641303C062816E11BE
:10357000E7CFFC013196E770E213EBCF4F8358871A
:103580008F8198850E94F01E292F22952F709032EE
:1035900060F0225F2F70223078F49F7051F0F801B4
:1035A0009581907F31F4D12C0AC09F7011F088234F
:1035B000D1F3805E8830B8F3C8010E94EB18FD2C6F
:1035C00095CF351306C0241304C0D801EE2009F4AA
:1035D0007BC04F8358878F8198850E942D1988233F
:1035E00009F4B8C0EE2009F4B5C08091F30180322F
:1035F00070F02091EE013091EF013A8329831B8214
:10360000DD82CC828E83CE0101960E94EB1886E08B
:10361000F801AEEEB1E001900D928A95E1F70E94BB
:10362000A6190E949819FF24F39460CF911113C03A
:103630007C2DDB86CA866E2D8B850E9458198EEEF6
:1036400091E00E94EB1886E0F50111928A95E9F766
:103650000E9498194BCF3513BCCF2413BACFE11079
:10366000B8CFD80115968C93C8010E94EB1886E05C
:10367000F50111928A95E9F7F92C38CFC816D906C9
:1036800088F1B601681B790BCB01F12C883C9105C0
:1036900008F047C0FE2CEE2009F45CC0351330C0A2
:1036A00024132EC08091F30180FD21C0982F907FBC
:1036B000F1F0D80115968C931597903F39F0982F1B
:1036C000907F905F8F70892B15968C93C8010E9414
:1036D000EB1886E0F801AEEEB1E001900D928A950C
:1036E000E1F7B6CF809590958C0D9D1DCECF86E0ED
:1036F000F801AEEEB1E001900D928A95E1F7F6CEB9
:103700004F8358878F8198850E942D1981117FCF13
:103710008091F30181608093F301C8010E94EB184E
:10372000E5CE7C2DDB86CA866E2D8B850E945819CE
:1037300086E0EEEEF1E0DF011D928A95E9F788CF91
:10374000EE2041F04F8358878F8198850E942D1974
:1037500081115DCFC8010E94EB1865CF81E08E25F5
:10376000E5CE1F93CF93DF93CDB7DEB72C970FB67F
:10377000F894DEBF0FBECDBF4F83588769877A8725
:103780008B879C87CE0107960E940A1A882369F0CE
:103790008A859B85892B39F04F815885842F852315
:1037A0008F3F09F071C016E05FC086E0FE013796DA
:1037B000DE01119601900D928A95E1F78A859B852D
:1037C000892B89F388859F8189238F3F61F320911D
:1037D000BD0130E0C9010196877099274091BC0175
:1037E0004817190671F40E9429191092BD01109210
:1037F000BC0186E0EEEEF1E0DF011D928A95E9F76B
:10380000D2CF96E0929FD001939FB00D1124A25485
:10381000BE4FFE01319601900D929A95E1F780938B
:10382000BD010E947719BFCF819FC001112482542E
:103830009E4F0E940A1A8823E9F0E091BC011E9F66
:10384000F0011124E254FE4F408151816281738165
:10385000848195810E9467198091BC0190E0019656
:10386000877099278093BC018091BC019091BD0124
:103870008913DACF2C960FB6F894DEBF0FBECDBFFA
:10388000DF91CF911F91089569857A858B859C85FD
:103890000E94671988CFEF92FF920F931F93CF93E7
:1038A000DF938C01892B89F0F12CEE24E394E8015D
:1038B0002196F8018491843709F457C0A0F482302E
:1038C00009F43EC048F48130D1F0DF91CF911F91CF
:1038D0000F91FF90EF9008959CEF980F9037A8F705
:1038E0000E9463150AC0853709F44CC09CE7980F05
:1038F000903758F78F770E943F168E0116C00E5FE3
:103900001F4FFE01849190E2980F983060F4877009
:10391000FE2D01C0FF0F8A95EAF78F2F0E94F91F35
:103920000E94202002C00E9463158F2D815008F450
:10393000BECFEFE9FFE03197F1F700C00000F6CF0E
:103940000E5F1F4FFE01849190E2980F983050F463
:103950008770FE2D01C0FF0F8A95EAF78F2F0E9416
:10396000FF1FDECF0E943F16E0CF0E5F1F4FFE010C
:10397000C491C150D0F28FE99FE00197F1F700C0E8
:103980000000F7CF0E5F1F4FFE01F490CECF0895D9
:1039900060933E0270933F028093400290934102F5
:1039A0000C941519CF93DF9300D000D0CDB7DEB7BC
:1039B00069837A838B839C8380913E0290913F023E
:1039C000A0914002B091410229813A814B815C81F2
:1039D000822B932BA42BB52B80933E0290933F0216
:1039E000A0934002B09341020F900F900F900F9060
:1039F000DF91CF910C941519CF93DF9300D000D0B5
:103A0000CDB7DEB769837A838B839C8380913E0236
:103A100090913F02A0914002B091410229813A81E8
:103A20004B815C8182239323A423B52380933E02A0
:103A300090933F02A0934002B09341020F900F90E9
:103A40000F900F90DF91CF910C941519CF93DF93C6
:103A500000D000D0CDB7DEB769837A838B839C8397
:103A600080913E0290913F02A0914002B0914102AC
:103A700029813A814B815C8182279327A427B5272E
:103A800080933E0290933F02A0934002B093410284
:103A90000F900F900F900F90DF91CF910C9415190C
:103AA00010923A0210923B0210923C0210923D0298
:103AB0000C94151941E050E060E070E004C0440F40
:103AC000551F661F771F8A95D2F740933A0250938D
:103AD0003B0260933C0270933D020C941519282F11
:103AE00081E090E0A0E0B0E004C0880F991FAA1F19
:103AF000BB1F2A95D2F740913A0250913B02609148
:103B00003C0270913D02842B952BA62BB72B809302
:103B10003A0290933B02A0933C02B0933D020C9476
:103B2000151941E050E060E070E004C0440F551FFB
:103B3000661F771F8A95D2F74095509560957095CE
:103B400080913A0290913B02A0913C02B0913D02DB
:103B500084239523A623B72380933A0290933B02B4
:103B6000A0933C02B0933D020C941519282F81E0DC
:103B700090E0A0E0B0E004C0880F991FAA1FBB1F0F
:103B80002A95D2F740913A0250913B0260913C0253
:103B900070913D0284279527A627B72780933A0284
:103BA00090933B02A0933C02B0933D020C941519F4
:103BB000CF93DF9300D000D0CDB7DEB769837A838F
:103BC0008B839C8380913A0290913B02A0913C02AE
:103BD000B0913D0229813A814B815C81822B932BEC
:103BE000A42BB52B80933A0290933B02A0933C0206
:103BF000B0933D020F900F900F900F90DF91CF91F7
:103C00000C941519CF93DF9300D000D0CDB7DEB759
:103C100069837A838B839C8380913A0290913B02E3
:103C2000A0913C02B0913D0229813A814B815C8197
:103C300082239323A423B52380933A0290933B02DB
:103C4000A0933C02B0933D020F900F900F900F9005
:103C5000DF91CF910C941519CF93DF9300D000D052
:103C6000CDB7DEB769837A838B839C8380913A02D8
:103C700090913B02A0913C02B0913D0229813A8192
:103C80004B815C8182279327A427B52780933A0232
:103C900090933B02A0933C02B0933D020F900F9093
:103CA0000F900F90DF91CF910C9415190895E82F84
:103CB00022E1929FE00D11248E2F877041E001C018
:103CC000440F8A95EAF7E695E695E69585E0E89F44
:103CD000F0011124EC50FE4F30E020E070E05191F3
:103CE000DF011197CB01022E02C0969587950A94A9
:103CF000E2F7817081958527842385278C932F5F38
:103D00003F4F2530310559F70895E82F22E1929F62
:103D1000E00D11249E2F9770E695E695E69585E0D7
:103D2000E89FF0011124EC50FE4F50E040E080E0AD
:103D3000219130E0092E02C0369527950A94E2F7CA
:103D400021703327042E01C0220F0A94EAF7822B38
:103D50004F5F5F4F4530510559F70895BF92CF929D
:103D6000DF92EF92FF920F931F93CF93DF938C011B
:103D7000C0903A02D0903B02E0903C02F0903D02AD
:103D800080913E0290913F02A0914002B091410289
:103D9000C82AD92AEA2AFB2ACFE1D0E0BC2ED701D3
:103DA000C6010C2E04C0B695A795979587950A94E1
:103DB000D2F780FD0EC0219788F7B12C8B2DDF91B3
:103DC000CF911F910F91FF90EF90DF90CF90BF9018
:103DD0000895B8018C2F0E94D30A019761F3EECFAA
:103DE000CF93DF93D82FC92F0E94AE1E6D2F7C2F4B
:103DF000DF91CF910C94D30A1F93CF93DF93162FAB
:103E0000D72F9091BB01992339F0862F972FDF91FF
:103E1000CF911F910C94F01E882391F0862F972F3D
:103E20000E94AE1EC82F682F812F9D2F0E94571E03
:103E3000612F7D2F8C2FDF91CF911F910C94D30A8E
:103E4000862F972F0E94851EC82FF2CF80914202A5
:103E5000859585958595089580914202877008958E
:103E600098E0899F90011124622B609342020C9488
:103E70006F1D909142028095892380934202282FE2
:103E8000277061F4282F082E000C330B92171306AD
:103E900029F08595859585950C94911D08959091AF
:103EA0004202977081E009F480E008959091130137
:103EB0009923E1F09091BE0297FF18C0E82FE69594
:103EC000E695E695EF3139F120910101309102013B
:103ED000E20FF32FF11D877021E030E001C0220FC7
:103EE0008A95EAF78181822B8183089520910101CF
:103EF00030910201F90132969FEF40E05191851710
:103F000051F09F3F19F4511101C0942F4F5F4E3172
:103F1000A9F79F3F09F40895290F311D97FD3A95A0
:103F2000F9018283089590911301992301F19091F1
:103F3000BE0297FF1CC0E82FE695E695E695EF31A7
:103F400039F12091010130910201E20FF32FF11DAF
:103F5000877021E030E0A90102C0440F551F8A9507
:103F6000E2F7CA0180959181892381830895209188
:103F7000010130910201F9013296205E3F4F91918B
:103F8000891303C0DF0111971C92E217F307B9F7F9
:103F9000089581E090E0E0910101F0910201E80FC5
:103FA000F91F1082019680329105A9F7089590912A
:103FB0006602982B909366020895982F90958091B1
:103FC000660289238093660208951092660208951E
:103FD00090916502982B909365020895982F909583
:103FE000809165028923809365020895109265028D
:103FF000089590916402982B909364020895982FED
:1040000090958091640289238093640208951092B0
:104010006402089580934302089510924302089524
:104020002091010130910201F9013196205E3F4F4C
:1040300080E0919191118F5FE217F307D1F7089516
:10404000E0910101F0910201809166028083E0918C
:104050000101F0910201808190916502892B80839A
:10406000E0910101F0910201808190916402892B1D
:10407000808390914302992361F0E0910101F091D6
:1040800002018081892B80830E941020811110926F
:10409000430280910101909102010C941E146DEE77
:1040A0007EEF90E080E00E94FF2D60E082E090E0F3
:1040B0000E94E12D60E083E090E00E94E12D60E04D
:1040C00084E090E00E94E12D60E085E090E00E94B5
:1040D000E12D40E050E0BA0188E090E00C94F32D2F
:1040E00090E080E00E94DB2D9C0181E02D3E3E4F60
:1040F00009F080E0089582E090E00C94CD2D682FC7
:1041000082E090E00C94E12D83E090E00C94CD2DC2
:10411000682F83E090E00C94E12D84E090E00C9413
:10412000CD2D682F84E090E00C94E12D8091C402A5
:10413000843039F11092680288E190E020E40FB6F3
:10414000F894A895809360000FBE2093600080E0F3
:104150000E94B40A83B7817F846083BF83B7816084
:1041600083BF7894889583B78E7F83BF0FB6F8940A
:10417000A895809160008861809360001092600033
:104180000FBE089508950895CF93DF9300D000D017
:104190000F92CDB7DEB70E94C2200E94620D0E942E
:1041A000C3201D828D810E945B0E672B682B692BBB
:1041B00071F48D818F5F8D838630A1F780E00F9041
:1041C0000F900F900F900F90DF91CF91089581E0A5
:1041D000F6CF0E9429190E9412140C94B40A1F925F
:1041E0001FB61F9211248F939F93AF93BF9380911B
:1041F0006802811113C08091BA029091BB02A09114
:10420000BC02B091BD024196A11DB11D8093BA02BE
:104210009093BB02A093BC02B093BD02BF91AF913B
:104220009F918F911F901FBE1F90189582E084BDB3
:1042300093E095BD9AEF97BD80936E0008952FB7D8
:10424000F8948091BA029091BB02A091BC02B09107
:10425000BD022FBF0895CF92DF92EF92FF929C0193
:104260004FB7F8948091BA029091BB02A091BC0222
:10427000B091BD024FBF6C017D01EE24FF24A90166
:1042800070E060E0C416D506E606F70638F0821B3B
:10429000930BFF90EF90DF90CF9008950197F7CFA9
:1042A0001F921FB61F9211248F939F93AF93BF93BA
:1042B0008091BA029091BB02A091BC02B091BD0264
:1042C0000196A11DB11D8093BA029093BB02A093E9
:1042D000BC02B093BD02BF91AF919F918F911F908F
:1042E0001FBE1F9018950E946829F8942FEF87EA47
:1042F00091E6215080409040E1F700C0000087E047
:1043000090EBDC018093CD029093CE02A093CF027C
:10431000B093D00288E19CE00FB6F894A895809302
:1043200060000FBE90936000FFCFAF92BF92CF921C
:10433000DF92EF92FF920F931F93CF93C0E0A82ECE
:10434000B12C8C2F0E945B0E6B017C0110E000E011
:10435000D701C601002E04C0B695A79597958795FD
:104360000A94D2F780FF13C0602F7C2F80E00E9458
:10437000B70AA816B90659F481E0CF911F910F91A1
:10438000FF90EF90DF90CF90BF90AF9008950F5FB8
:104390001F4F02311105E1F6CF5FC63091F680E084
:1043A000ECCFCF93C82F8CE20E949521882321F077
:1043B0008C2FCF910C94952180E0CF910895CF93CD
:1043C000DF9300D000D0CDB7DEB70E9470208111FE
:1043D00002C00E944F2095E6998308C00E94620D9A
:1043E0008FE39CE90197F1F700C00000A981A1507B
:1043F000A983A111F3CF89E20E94D121811110C1BB
:104400008AE20E94D12181110E944F2085E00E9402
:10441000D12181110E9473210E947B208093670229
:1044200087E00E94D121882371F08BE10E94D12185
:10443000882309F4D1C090916702892F8D7F91FF65
:10444000826080936702809167020E947F200E94B1
:104450008D2090E09093BF028093BE0280EE0E9478
:10446000D121882341F09091BE02892F8E7F90FF49
:1044700081608093BE0289E30E94D121882341F0AC
:104480009091BE02892F8D7F91FF82608093BE0242
:1044900082EE0E94D121882341F09091BE02892FA3
:1044A0008B7F92FF84608093BE0286EE0E94D121B2
:1044B000882341F09091BE02892F877F93FF886007
:1044C0008093BE0283EE0E94D121882341F0909117
:1044D000BE02892F8F7E94FF80618093BE0285E3A8
:1044E0000E94D121882341F09091BE02892F8F7DB7
:1044F00095FF80628093BE0281E30E94D1218823D0
:1045000041F09091BE02892F8F7B96FF806480934B
:10451000BE0281E10E94D121882341F09091BE0228
:10452000892F97FB87F980588093BE028091BE0245
:104530000E94912087E20E94D12189838EE10E940E
:10454000D121882319F0B981B260B9838FE10E942B
:10455000D121882319F029812460298380E20E94D7
:10456000D121882319F039813860398381E20E9492
:10457000D121882319F049814061498382E20E9458
:10458000D121882319F059815062598383E20E9416
:10459000D121882319F089818064898384E20E9473
:1045A000D1218823B1F199819068998389810E94F2
:1045B00088203981232F30E050E040E029833A837E
:1045C0004B835C83CA01B9010F900F900F900F903D
:1045D000DF91CF910C94C81C8EE00E94D1218823DA
:1045E00039F090916702892F8B7F92FF846029CFE9
:1045F00080E10E94D12190916702882329F0892FC0
:10460000877F93FF88601DCF892F8E7F90FF816009
:1046100018CFA981A111CACF0E948420282FCBCF07
:104620000F900F900F900F90DF91CF910895809190
:104630006B0280FF12C06091060185E0689FB001A7
:104640001124759567957595679560387105A8F57E
:1046500061157105A1F1862F089581FF09C0609150
:10466000060185E0689FB001112475956795EDCF2F
:104670006091060182FD0AC080916C028823D1F00E
:104680009091050160910601891728F085E0689FE7
:10469000B0011124DACF869FB001112485E0869FF6
:1046A0009001879F300D1124692F70E0C9010E948D
:1046B000B02DCBCF65E070E0CECF8FE7089581E0DD
:1046C000089580916B0280FF0CC06091040170E03E
:1046D00075956795759567956115710549F1862FF3
:1046E000089581FF06C06091040170E0759567959B
:1046F000F3CF6091040182FD0BC090916C0299236D
:10470000A1F06091030180910401961738F0682FA1
:1047100070E06038710500F38FE70895899FC0014C
:10472000112470E00E94B02DF4CF61E070E0D7CF8B
:1047300081E00895803F31F40E9417238195809392
:104740006F020895813F19F40E941723F8CF823F2A
:1047500031F40E941723819580936E020895833F60
:1047600019F40E941723F8CF893F29F40E9461238E
:104770008093700208958A3F21F40E9461238195FD
:10478000F7CF8B3F31F40E946123819580937102B2
:1047900008958C3F19F40E946123F8CF843F31F4CF
:1047A00080916D02816080936D020895853F21F4B0
:1047B00080916D028260F7CF863F21F480916D0277
:1047C0008460F1CF873F21F480916D028860EBCF48
:1047D000883F21F480916D028061E5CF8D3F31F4F7
:1047E00080916B02816080936B0208958E3F21F46B
:1047F00080916B028260F7CF8F3FB9F780916B0297
:104800008460F1CF90916E02803F41F480916F02FD
:1048100087FD10926F02992371F00895813F29F46A
:1048200080916F021816ACF3F6CF823F81F497FFA8
:10483000F2CF10926E0280916F0290917002892BDC
:1048400090917102892B49F710926C020895833F71
:1048500019F4191674F3DFCF893F39F4809170028F
:104860001816CCF610927002D6CF8A3F29F48091A8
:10487000700287FFD0CFF6CF8B3F39F48091710261
:1048800087FFC9CF10927102C6CF8C3F29F4809167
:1048900071021816BCF3BFCF843F31F480916D02D2
:1048A0008E7F80936D02B7CF853F21F480916D029A
:1048B0008D7FF7CF863F21F480916D028B7FF1CF02
:1048C000873F21F480916D02877FEBCF883F21F4F1
:1048D00080916D028F7EE5CF8D3F31F480916B0228
:1048E0008E7F80936B0297CF8E3F21F480916B0275
:1048F0008D7FF7CF8F3F09F08ECF80916B028B7F3A
:10490000F0CF8DE692E00E9429140E941F2190931F
:104910006A028093690208951F93CF93DF9300D0BA
:1049200000D000D0CDB7DEB78091690290916A02C5
:104930000E942B21AC0180916C022091070130E094
:10494000811106C0209108019AE0299F900111244D
:104950004217530788F020916E02A0916F02A9833D
:1049600010917002B0917102BE8321110FC09A2F75
:10497000912B9B2B09F0B2C026960FB6F894DEBFA0
:104980000FBECDBFDF91CF911F9108958F3F19F0DA
:104990008F5F80936C02121624F40E941723809379
:1049A0006E0280916E0287FF05C00E9417238195D9
:1049B00080936E022981121624F40E94172380939B
:1049C0006F0280916F0287FF05C00E9417238195B7
:1049D00080936F0280916E02882309F455C0309154
:1049E0006F023D83332309F44FC0282F880F330B08
:1049F000440B550B29833A834B835C83CA01B9016D
:104A00000E94A32C23E333E343E35FE369837A83C8
:104A10008B839C8369817A818B819C810E94072D85
:104A200069837A838B839C8369817A818B819C8162
:104A30000E946B2C60936E028D81082E000C990BE6
:104A4000AA0BBB0B89839A83AB83BC83BC01CD01CA
:104A50000E94A32C23E333E343E35FE369837A8378
:104A60008B839C8369817A818B819C810E94072D35
:104A700069837A838B839C8369817A818B819C8112
:104A80000E946B2C60936F02111624F40E94612324
:104A9000809370028091700287FF05C00E9461239D
:104AA0008195809370029E81191624F40E946123DF
:104AB000809371028091710287FF05C00E9461237B
:104AC00081958093710226960FB6F894DEBF0FBED3
:104AD000CDBFDF91CF911F910C9481248F3F09F0BE
:104AE00057CF68CF85E0EDE6F2E0DF011D928A95B1
:104AF000E9F710926C0210926B0208958091920275
:104B00000895CF93DF9300D00F92CDB7DEB72091F9
:104B1000C402243019F523E029838A839B832093E0
:104B2000E9008FEF9091E800815095FD06C095ED6A
:104B30009A95F1F700008111F5CF8091E80085FF8B
:104B40000DC050E040E063E070E0CE0101960E94AD
:104B5000E0278091E8008E778093E8000F900F9017
:104B60000F90DF91CF910895CF93DF9300D00F92F4
:104B7000CDB7DEB79C018091C402843031F582E06C
:104B80008983205831093B832A8383E08093E9009D
:104B90008FEF9091E800815095FD06C095ED9A95B4
:104BA000F1F700008111F5CF8091E80085FF0DC07D
:104BB00050E040E063E070E0CE0101960E94E02703
:104BC0008091E8008E778093E8000F900F900F900F
:104BD000DF91CF9108952091C4022430F1F422E0B6
:104BE0002093E9002FEF3091E800215035FD06C0F9
:104BF00035ED3A95F1F700002111F5CF2091E8004D
:104C000025FF0BC050E040E065E070E00E94E02727
:104C10008091E8008E778093E8000895CF93DF932A
:104C2000D82FC92F8091C4028430F1F490911301E0
:104C30009923E9F09091BE0297FF19C08093E90093
:104C40008FEF9091E800815095FD06C095E19A950F
:104C5000F1F700008111F5CF8091E80050E040E0CD
:104C600060E270E085FD1AC0DF91CF91089581E088
:104C70008093E9008FEF9091E800815095FD06C088
:104C800095ED9A95F1F700008111F5CF8091E8003C
:104C900085FFEACF50E040E068E070E08D2F9C2F68
:104CA0000E94E0278091E8008E778093E80080E200
:104CB000ED2FFC2FA2E7B2E001900D928A95E1F76B
:104CC000D3CF8091C302811109C00E9468290E943C
:104CD000CA298091E20084608093E20008951092D6
:104CE000C3020895089508950C94E92042E061EC10
:104CF00081E00E94E42842E061EC82E00E94E42826
:104D000042E061EC83E00E94E42842E261EC84E04E
:104D10000C94E4288091C602893089F148F48230ED
:104D200009F494C0833009F44FC0813041F00895F4
:104D30008A3009F47BC08B3009F461C008958091FA
:104D4000C502813A09F03FC08091E800877F8093D7
:104D5000E8008091C9029091CA02892B61F460E257
:104D600082E792E070E00E942F288091E8008B7724
:104D70008093E800089560E090E080E0F3CF8091B8
:104D8000C502813201F58091C9029091CA02009753
:104D900011F00397C1F48091E800877F8093E800C9
:104DA0008091E80082FF0BC08091F1008093920215
:104DB0008091E8008B778093E8000C94182980910B
:104DC000C4028111EDCF08958091C502813AD9F7CF
:104DD0008091C9029091CA02892BA9F78091E800BD
:104DE000877F8093E8008091E80080FFFCCF80916E
:104DF00013018093F1008091E8008E77DCCF8091E1
:104E0000C502813201F78091C9029091CA02892BB3
:104E1000D1F68091E800877F8093E8000E941829EE
:104E20008091C702809313010C9429198091C502C7
:104E3000813249F68091E800877F8093E8000E94E4
:104E400018298091C8028093930208958091C50229
:104E5000813A09F0B8CF8091E800877F8093E8001D
:104E60008091E80080FFFCCF80919302C2CF84B78D
:104E7000877F84BF0FB6F894A89580916000886101
:104E800080936000109260000FBE80E88093610004
:104E9000109261000E9461140E9468290E94CA2930
:104EA0008091E20084608093E20078940E94502C0C
:104EB0000E94631489E091E00E940D148091C40265
:104EC000853029F00E946B140E94DA13F7CF0E94FC
:104ED00096208091C202882389F30E94C4208823EF
:104EE00069F30E94CA27EACF9C01DA01892F99272A
:104EF00083309105C1F068F48130910509F445C013
:104F0000029761F48DE690E025E530E12D933C9326
:104F1000089581329105E1F0829739F190E080E0C7
:104F200030E020E0F3CFC9019927213059F08230D9
:104F3000910559F0E1E5F0E1892B81F7849190E04A
:104F40009F01E4CFE9E3F0E1F9CFE5E2F0E1F6CF4C
:104F5000643020F7E62FF0E0EE0FFF1FE85CFE4F15
:104F60002081318189E090E0D1CF6430B8F670E0E3
:104F7000FB01EE0FFF1FE05DFE4F20813181645D7C
:104F80007E4FFB01808190E0C1CF82E190E022EC76
:104F900030E1BCCF84E189BD86E189BD09B400FE62
:104FA000FDCF8091D8008F7D8093D8008091E00064
:104FB00082608093E0008091E00081FDFCCF089545
:104FC000AF92BF92CF92DF92FF920F931F93CF9336
:104FD000DF936C01EB018A010E943729F82E8111C1
:104FE00023C00115110539F0F80180819181C81B9A
:104FF000D90BC80ED91EB12CA12C2097A9F08091F5
:10500000E80085FD22C08091E8008E778093E8005B
:1050100001151105A1F0F80180819181A80EB91E3A
:10502000B182A08285E0F82E8F2DDF91CF911F9164
:105030000F91FF90DF90CF90BF90AF9008950E94A6
:1050400037298823D1F2F82EEFCFF60181916F0135
:105050008093F1002197FFEFAF1ABF0ACECFFC017A
:10506000CB012091CB023091CC022617370790F06C
:10507000009729F42091E8002E772093E80040E083
:10508000009751F4411108C08091E80082FF31C0BF
:1050900080E00895C901F3CF2091C4022223A9F131
:1050A0002530A9F12091E80023FD2DC02091E800D2
:1050B00022FDEACF2091E80020FFE2CF2091F2000C
:1050C0003091F300009719F02830310558F041E095
:1050D0002830310509F040E02091E8002E77209338
:1050E000E800CECF41914093F10001972F5F3F4FF1
:1050F000E9CF8091C402882341F0853041F080914E
:10510000E80083FFC1CF81E0089582E0089583E045
:105110000895FC01CB012091CB023091CC022617DF
:10512000370790F0009729F42091E8002E7720931C
:10513000E80040E0009751F4411108C08091E80078
:1051400082FF32C080E00895C901F3CF2091C402EC
:105150002223B1F12530B1F12091E80023FD2EC0CA
:105160002091E80022FDEACF2091E80020FFE2CF65
:105170002091F2003091F300009719F028303105AA
:1051800058F041E02830310509F040E02091E80076
:105190002E772093E800CECF44914093F1003196D2
:1051A00001972F5F3F4FE8CF8091C402882341F0E1
:1051B000853041F08091E80083FFC0CF81E0089501
:1051C00082E0089583E00895982F973028F08F703B
:1051D0008093E90081E008959093E900242F762FD1
:1051E00050E0981731F07091EC002091ED00509153
:1051F000F00021FD02C09F5FE8CF3091EB003E7FC1
:105200003093EB003091ED003D7F3093ED00309115
:10521000EB0031603093EB007093EC002093ED00D5
:105220005093F0002091EE0027FDE5CF80E0089537
:105230008091C50287FF13C08091E80082FF06C0FD
:105240008091E8008B778093E80004C08091C402CD
:105250008111F2CF08958091C4028823D9F38091FF
:10526000E80080FFF8CF8091E8008E77ECCF2091A6
:10527000E4003091E50095E6A9012091EC00822F31
:10528000817020FF06C08091E80080FF06C080E0AA
:1052900008952091E80022FD1AC08091C40288235D
:1052A00089F0853089F08091EB0085FD0FC0209159
:1052B000E4003091E50042175307F9F29150E1F60E
:1052C00084E0089582E0089583E0089581E00895E0
:1052D0000E94D9290E94E129E0EEF0E080818160FE
:1052E0008083E8EDF0E080818F77808319BCA7EDA3
:1052F000B0E08C918E7F8C9380818F7E8083109222
:10530000C30208950F931F93CF93DF930E94D9296F
:105310000E94E129C8EDD0E088818F778883888159
:105320008068888388818F7D8883E7EDF0E08081C5
:105330008068808319BC1092C4021092C00210923F
:10534000C2021092C10200EE10E0F80180818B7F52
:10535000808388818160888342E060E080E00E94F1
:10536000E428E1EEF0E080818E7F8083E2EEF0E0E1
:10537000808181608083808188608083F801808162
:105380008E7F8083888180618883DF91CF911F9198
:105390000F910895E8EDF0E080818F7E8083E7ED46
:1053A000F0E080818160808381E08093C3020C946F
:1053B0008229E8EDF0E080818C7F80831092E2000A
:1053C00008951092DA001092E10008951F920F9252
:1053D0000FB60F9211240BB60F922F933F934F935A
:1053E0005F936F937F938F939F93AF93BF93EF934D
:1053F000FF938091E10082FF0BC08091E20082FF69
:1054000007C08091E1008B7F8093E1000E944F2CC8
:105410008091DA0080FF19C08091D80080FF15C00C
:105420008091DA008E7F8093DA008091D90080FF2E
:1054300096C084E189BD86E189BD09B400FEFDCF37
:1054400081E08093C4020E9461268091E10080FF88
:1054500019C08091E20080FF15C08091E2008E7F2C
:105460008093E2008091E20080618093E20080916D
:10547000D80080628093D80019BC85E08093C40274
:105480000E9473268091E10084FF29C08091E20090
:1054900084FF25C084E189BD86E189BD09B400FE91
:1054A000FDCF8091D8008F7D8093D8008091E1005E
:1054B0008F7E8093E1008091E2008F7E8093E200F6
:1054C0008091E20081608093E2008091C002882395
:1054D00009F44BC084E08093C4020E94742680913A
:1054E000E10083FF29C08091E20083FF25C0809105
:1054F000E100877F8093E10082E08093C4021092F4
:10550000C0028091E1008E7F8093E1008091E200F3
:105510008E7F8093E2008091E20080618093E200C0
:1055200042E060E080E00E94E4288091F000886022
:105530008093F0000E947226FF91EF91BF91AF918E
:105540009F918F917F916F915F914F913F912F919B
:105550000F900BBE0F900FBE0F901F90189519BCA7
:105560001092C4020E946F2670CF8091E30087FDE5
:1055700002C081E0B0CF83E0AECF1F920F920FB692
:105580000F9211240BB60F922F933F934F935F937B
:105590006F937F938F939F93AF93BF93CF93DF933B
:1055A000EF93FF93D091E900DF708091EC00C82F5A
:1055B000C17080FDC0E81092E9008091F000877F03
:1055C0008093F00078940E94052B1092E90080915E
:1055D000F00088608093F000CD2BCF70C093E9007D
:1055E000FF91EF91DF91CF91BF91AF919F918F91FB
:1055F0007F916F915F914F913F912F910F900BBED3
:105600000F900FBE0F901F9018951F93CF93DF93AD
:10561000CDB7DEB7AA970FB6F894DEBF0FBECDBFE9
:1056200085EC92E0FC0101962091F100208322E0BC
:105630008D3C9207B9F70E948A268091E80083FF8B
:1056400016C18091C5029091C6029A3008F00FC130
:10565000E92FF0E0EE5BF14D0C94C42D803881F021
:10566000823809F004C18091C9028F708093E900EB
:105670008091EB0085FB882780F91092E90006C035
:105680008091C1029091C202911182609091E800D4
:10569000977F9093E8008093F1001092F100809141
:1056A000E8008E77E0C0882309F4CEC0823009F08C
:1056B000DEC08091C7028111D1C08091C9028F7074
:1056C00009F4D5C08093E9002091EB0020FFC6C00B
:1056D000933031F48091EB0080628093EB00BEC088
:1056E0009091EB0090619093EB0021E030E001C0DD
:1056F000220F8A95EAF72093EA001092EA0080913F
:10570000EB008860EACF8111B2C01091C7021F7709
:105710008091E3008078812B8093E3008091E80002
:10572000877F8093E8000E9418298091E80080FF1D
:10573000FCCF8091E30080688093E30082E0111148
:1057400083E08093C40293C08058823008F08FC0F9
:105750008091C7029091C8028C3D23E09207A1F589
:1057600083E08A838AE289834FB7F894DE01139637
:1057700020E03EE051E2E32FF0E050935700E49147
:1057800020FF03C0E295EF703F5FEF708E2F90E037
:10579000EA30C0F0C7968D939D932F5F243159F75F
:1057A0004FBF8091E800877F8093E8006AE270E055
:1057B000CE0101960E942F288091E8008B7780937C
:1057C000E80055C0C096E7CFAE014F5F5F4F6091D4
:1057D000C9020E947427BC01892B09F448C080913A
:1057E000E800877F8093E80089819A810E94892858
:1057F000E3CF8038E1F58091E800877F8093E8006F
:105800008091C0028093F1004ACF811130C0909105
:10581000C702923060F58091E800877F8093E800AE
:105820009093C0020E9418298091C002882311F031
:1058300084E005C08091E30087FDFACF81E080938A
:10584000C4020E94762613C08091C702813079F489
:1058500081E0933009F080E08093C2021092E90069
:105860008091E800877F8093E8000E94182980914A
:10587000E80083FF0AC08091E800877F8093E800FA
:105880008091EB0080628093EB00AA960FB6F894AB
:10589000DEBF0FBECDBFDF91CF911F910895089558
:1058A000CF938091C4028823A1F0C091E900CF700A
:1058B0009091EC00892F817090FD80E8C82B1092A8
:1058C000E9008091E80083FD0E94052BCF70C09312
:1058D000E900CF9108950E94722C6894B1110C9444
:1058E000012D08950E94E62C88F09F5798F0B92F5B
:1058F0009927B751B0F0E1F0660F771F881F991F05
:105900001AF0BA95C9F714C0B13091F00E94002D79
:10591000B1E008950C94002D672F782F8827B85F89
:1059200039F0B93FCCF3869577956795B395D9F75C
:105930003EF490958095709561957F4F8F4F9F4F66
:105940000895E89409C097FB3EF490958095709572
:1059500061957F4F8F4F9F4F9923A9F0F92F96E9BB
:10596000BB279395F695879577956795B795F11130
:10597000F8CFFAF4BB0F11F460FF1BC06F5F7F4FCD
:105980008F4F9F4F16C0882311F096E911C07723DF
:1059900021F09EE8872F762F05C0662371F096E8E8
:1059A000862F70E060E02AF09A95660F771F881FB7
:1059B000DAF7880F9695879597F9089557FD9058CF
:1059C000440F551F59F05F3F71F04795880F97FBC3
:1059D000991F61F09F3F79F087950895121613067D
:1059E0001406551FF2CF4695F1DF08C016161706AC
:1059F0001806991FF1CF86957105610508940895E1
:105A0000E894BB2766277727CB0197F908950E9472
:105A10001A2D0C948B2D0E947D2D38F00E94842D20
:105A200020F0952311F00C94742D0C947A2D1124F0
:105A30000C94012D0E94DE2C70F3959FC1F3950FFD
:105A400050E0551F629FF001729FBB27F00DB11D02
:105A5000639FAA27F00DB11DAA1F649F6627B00D92
:105A6000A11D661F829F2227B00DA11D621F739F7B
:105A7000B00DA11D621F839FA00D611D221F749F89
:105A80003327A00D611D231F849F600D211D822FD0
:105A9000762F6A2F11249F5750409AF0F1F08823F7
:105AA0004AF0EE0FFF1FBB1F661F771F881F915024
:105AB0005040A9F79E3F510580F00C94742D0C9432
:105AC000012D5F3FE4F3983ED4F386957795679573
:105AD000B795F795E7959F5FC1F7FE2B880F911D4E
